:100000000C94130F0C94440F0C94440F0C94440F55
:100010000C94440F0C94440F0C94440F0C94440F14
:100020000C94440F0C94440F0C94440F0C94440F04
:100030000C94440F0C94F6D90C94440F0C94440F78
:100040000C94440F0C94FF860C94440F0C94440FB2
:100050000C94440F0C94440F0C9464980C94DDD3CE
:100060000C94440F0C9475210C94440F0C94440F81
:100070000C94440F0C94440F0C94440F0C94440FB4
:100080000C94440F0C94440F0C94440F0C94440FA4
:100090000C94440F0C94440F0C94440F0C94F4D023
:1000A0000C94440F0C94440F0C94440F0C94440F84
:1000B0000C94440F0C94440F0C94440F0C94440F74
:1000C0000C94440F0C94440F0C94440F0C94440F64
:1000D0000C94440F0C94440F0C94440F0C94440F54
:1000E0000C94440FBE98CD98E998F89812992199EC
:1000F0003B993F9947990CD511D516D520D52AD5CE
:10010000A3D534D53CD544D54ED558D562D571D577
:100110007BD5A3D585D58FD599D5C5D5C8D5B7D528
:10012000BBD5C1D5FFD5CCD5D0D5D6D5DAD5DED582
:10013000E4D5E8D5ECD5FFD5F2D5F6D5FAD5084A01
:10014000D73B3BCE016E84BCBFFDC12F3D6C7431EB
:100150009ABD56833DDA3D00C77F11BED9E4BB4C42
:100160003E916BAAAABE000000803F05A84CCDB20C
:10017000D44EB93836A9020C50B9918688083CA6ED
:10018000AAAA2ABE000000803F004D383420582023
:1001900059205A20450043616E6E6F7420656E745D
:1001A0006572207375626469723A20004D323400C2
:1001B0004D3233202573006175746F25692E6700F9
:1001C0006572726F722077726974696E6720746FDE
:1001D0002066696C65004E6F74205344207072690C
:1001E0006E74696E67002F005344207072696E74DC
:1001F000696E67206279746520002E0044656C6525
:1002000074696F6E206661696C65642C2046696C48
:10021000653A200046696C652064656C65746564A8
:100220003A002E006F70656E206661696C65642C03
:100230002046696C653A200057726974696E6720C0
:10024000746F2066696C653A20002E006F70656ED1
:10025000206661696C65642C2046696C653A2000F3
:100260002E006F70656E206661696C65642C204697
:10027000696C653A200046696C652073656C65633E
:10028000746564002053697A653A200046696C659C
:10029000206F70656E65643A20002E006F70656E89
:1002A000206661696C65642C2046696C653A2000A3
:1002B0004E6F772066726573682066696C653A20B8
:1002C000004E6F7720646F696E672066696C653ACF
:1002D00020002220706F73002220706172656E749E
:1002E0003A2200535542524F5554494E45204341FE
:1002F0004C4C207461726765743A2200747279699B
:100300006E6720746F2063616C6C207375622D675B
:10031000636F64652066696C657320776974682013
:10032000746F6F206D616E79206C6576656C732ECD
:10033000204D4158206C6576656C2069733A0053F6
:10034000442063617264206F6B006F70656E526F42
:100350006F74206661696C656400766F6C756D659D
:100360002E696E6974206661696C6564005344206F
:10037000696E6974206661696C006563686F3A0034
:100380004572726F723A0048617264636F646564AB
:100390002044656661756C742053657474696E677A
:1003A00073204C6F616465640053746F72656420E0
:1003B00073657474696E67732072657472696576AB
:1003C0006564002044002049002020204D33303156
:1003D0002050005049442073657474696E67733A05
:1003E00000205A0020590020204D3230362058007D
:1003F000486F6D65206F666673657420286D6D2982
:100400003A00204500205A00205800204200205485
:100410000020204D323035205300416476616E63F8
:100420006564207661726961626C65733A20533D40
:100430004D696E20666565647261746520286D6D16
:100440002F73292C20543D4D696E2074726176659E
:100450006C20666565647261746520286D6D2F730C
:10046000292C20423D6D696E696D756D207365673D
:100470006D656E742074696D6520286D73292C205C
:10048000583D6D6178696D756D205859206A6572A7
:100490006B20286D6D2F73292C20205A3D6D6178BB
:1004A000696D756D205A206A65726B20286D6D2FFD
:1004B00073292C2020453D6D6178696D756D20454F
:1004C000206A65726B20286D6D2F732900205400FF
:1004D00020204D323034205300416363656C6572D7
:1004E0006174696F6E3A20533D616363656C657238
:1004F0006174696F6E2C20543D726574726163740F
:1005000020616363656C65726174696F6E0020457C
:1005100000205A0020590020204D32303120580050
:100520004D6178696D756D20416363656C657261BD
:1005300074696F6E20286D6D2F7332293A00204543
:1005400000205A0020590020204D3230332058001E
:100550004D6178696D756D2066656564726174655D
:100560007320286D6D2F73293A00204500205A0012
:1005700020590020204D3932205800537465707383
:100580002070657220756E69743A005365747469E1
:100590006E67732053746F726564006563686F3AA9
:1005A0000053544F505045442E20005072696E74D1
:1005B00065722073746F7070656420647565207453
:1005C0006F206572726F72732E204669782074688E
:1005D00065206572726F7220616E6420757365208C
:1005E0004D39393920746F20726573746172742EBD
:1005F000202854656D706572617475726520697329
:100600002072657365742E205365742069742061AF
:10061000667465722072657374617274696E67299D
:10062000004B494C4C45442E20005072696E746555
:10063000722068616C7465642E206B696C6C28296B
:100640002063616C6C656421006F6B00526573659B
:100650006E643A20000A00207A3A200020793A207D
:100660000020783A2000426564002200556E6B6ECF
:100670006F776E20636F6D6D616E643A2022004368
:1006800068616E67652066696C616D656E74000AED
:1006900000207A6F66667365743A20000A00207A3B
:1006A00070726F62655F7A6F66667365743A200078
:1006B0007A5F6D696E3A2000795F6D696E3A20004D
:1006C000785F6D696E3A2000205A3A0020593A004E
:1006D00020436F756E7420583A200020453A002060
:1006E0005A3A0020593A00583A004649524D57416B
:1006F00052455F4E414D453A4D61726C696E2056D0
:10070000313B20537072696E7465722F6772626C30
:10071000206D617368757020666F722067656E3634
:10072000204649524D574152455F55524C3A6874E4
:100730007470733A2F2F6769746875622E636F6DDA
:100740002F4572696B5A616C6D2F4D61726C696EC9
:100750002F2050524F544F434F4C5F5645525349F0
:100760004F4E3A312E30204D414348494E455F545B
:100770005950453A524F424F5231504C55535632D0
:100780002045585452554445525F434F554E543AB4
:100790003120555549443A30303030303030302DEA
:1007A000303030302D303030302D303030302D3052
:1007B00030303030303030303030300A00524F423C
:1007C0004F5231504C55535632204F66662E0052D0
:1007D0004F424F5231504C5553563220726561642E
:1007E000792E0042656420646F6E652E0020423AC7
:1007F0000020453A00543A0042656420486561741F
:10080000696E672E0048656174696E6720646F6E5B
:10081000652E0020573A0020453A00543A004865BA
:100820006174696E672E2E2E002042403A002040EF
:100830003A00202F003A00205400202F0020423A96
:1008400000202F006F6B20543A002569206D696EDF
:100850002C2025692073656300456E642066696CF1
:1008600065206C69737400426567696E2066696C07
:1008700065206C697374004E6F206D6F76652E0075
:10088000526573756D696E67207072696E7400577A
:1008900061697420666F7220757365722E2E2E004A
:1008A0000A00205A3A200020593A200020583A20C5
:1008B0000042656400205A3A0020593A0020436FF4
:1008C000756E7420583A200020453A00205A3A00AC
:1008D00020593A00583A0020643A200020623A2019
:1008E0000045716E20636F656666696369656E7445
:1008F000733A20613A2000486F6D6520582F5920C7
:100900006265666F7265205A00486F6D6520582FCA
:1009100059206265666F7265205A00205A3A00209D
:10092000593A0020436F756E7420583A20002045D4
:100930003A00205A3A0020593A00583A005A20709A
:10094000726F6265206F75742E20626564005A2094
:1009500070726F6265206F75742E20626564004846
:100960006F6D6520582F59206265666F7265205A39
:1009700000486F6D6520582F59206265666F72655B
:10098000205A00536C6565702E2E2E002569206854
:100990006F757273202569206D696E7574657300BB
:1009A000446F6E65207072696E74696E6720666947
:1009B0006C650053544F505045442E2000507269CE
:1009C0006E7465722073746F7070656420647565F1
:1009D00020746F206572726F72732E2046697820C2
:1009E000746865206572726F7220616E6420757321
:1009F00065204D39393920746F20726573746172C6
:100A0000742E202854656D7065726174757265204E
:100A100069732072657365742E2053657420697440
:100A20002061667465722072657374617274696E98
:100A30006729006F6B004E6F204C696E65204E7504
:100A40006D626572207769746820636865636B7393
:100A5000756D2C204C617374204C696E653A2000D2
:100A60004E6F20436865636B73756D20776974689A
:100A7000206C696E65206E756D6265722C204C610C
:100A80007374204C696E653A2000636865636B730C
:100A9000756D206D69736D617463682C204C617392
:100AA00074204C696E653A20004C696E65204E7565
:100AB0006D626572206973206E6F74204C6173746F
:100AC000204C696E65204E756D6265722B312C204D
:100AD0004C617374204C696E653A20004D313130A1
:100AE00000446F6E6520736176696E672066696C7D
:100AF000652E006F6B004D3239002020506C616E06
:100B00006E657242756666657242797465733A20E5
:100B1000002046726565204D656D6F72793A200040
:100B2000466562203235203230313600436F6D70B9
:100B3000696C65643A200028526F426F2033442C60
:100B40002052312B2053696E676C65204578747292
:100B5000756465722900207C20417574686F723A53
:100B60002000466562203235203230313620313760
:100B70003A32333A333200204C617374205570643A
:100B8000617465643A2000312E302E30004D617260
:100B90006C696E0020536F667477617265205265D0
:100BA00073657400205761746368646F67205265D1
:100BB000736574002042726F776E206F75742052D7
:100BC00065736574002045787465726E616C20529F
:100BD0006573657400506F7765725570007374614A
:100BE0007274002200656E717565696E672022005F
:100BF0002200656E717565696E67202200FFFFFF38
:100C00000000A0400000A0400000803F00007043B2
:100C100000007E4300007043000000000000000060
:100C2000000000000000704300007E43000070439D
:100C30000000000000000000000000006563686F15
:100C40003A004572726F723A0020746F6F206C6FB9
:100C50006E6720657874727573696F6E2070726547
:100C600076656E7465640020636F6C6420657874CB
:100C7000727573696F6E2070726576656E746564E7
:100C8000006563686F3A007C3C3E5E2B3D3F2F5B06
:100C90005D3B2C2A225C00656E6473746F70732058
:100CA0006869743A205A00205A3A00656E64737479
:100CB0006F7073206869743A20590020593A0065B2
:100CC0006E6473746F7073206869743A20580020E2
:100CD000583A00656E6473746F7073206869743A73
:100CE000200024F4D43050C38E20C2A24017828B3F
:100CF0007011127A910D816CD90AA861E108C75868
:100D00006607615143061E4B5D05C145A7041A41A4
:100D10001104093D9803713931034036DB02653314
:100D20009102D4305402802E1D02632CEE01752AEC
:100D3000C501B028A001102781018F2564012B2453
:100D40004B01E0223401AC211F018D200D01801FD9
:100D5000FC00841EED00971DDF00B81CD200E61BCE
:100D6000C600201BBC00641AB200B219A8000A1900
:100D7000A0006A189900D117910040178B00B51692
:100D8000840031167E00B31579003A157300C7143C
:100D90006F0058146A00EE13660088136300251371
:100DA0005E00C7125B006C12570015125400C1118F
:100DB000510070114F0021114B00D61049008D10C9
:100DC00047004610440002104200C00F4000800F50
:100DD0003E00420F3C00060F3B00CB0E3800930E46
:100DE00037005C0E3500270E3400F30D3200C10DC4
:100DF0003100900D3000600D2E00320D2D00050DDC
:100E00002C00D90C2B00AE0C2900850C29005C0CA1
:100E10002700350C27000E0C2600E80B2400C40B1D
:100E20002400A00B23007D0B23005A0B2100390B5B
:100E30002100180B2000F80A1F00D90A1E00BB0A67
:100E40001E009D0A1D00800A1D00630A1C00470A3F
:100E50001B002C0A1B00110A1A00F7091A00DD09F1
:100E60001900C4091900AB091900920917007B0980
:100E70001800630917004C091600360916002009EE
:100E800016000A091500F5081500E0081400CC0842
:100E90001400B8081400A4081400900813007D087A
:100EA00012006B081300580812004608120034089C
:100EB0001100230811001208110001081100F007A9
:100EC0001000E0071000D0071000C0071000B007A6
:100ED0000F00A107100091070E0083070F00740791
:100EE0000F0065070E0057070E0049070E003B076D
:100EF0000D002E070E0020070D0013070D0006073A
:100F00000D00F9060C00ED060D00E0060C00D406FD
:100F10000C00C8060C00BC060C00B0060C00A406B1
:100F20000B0099060C008D060B0082060B0077065D
:100F30000B006C060B0061060A0057060B004C06FE
:100F40000A0042060A0038060A002E060A00240695
:100F50000A001A060A001006090007060A00FD0525
:100F60000900F4050900EB050900E2050900D905AF
:100F70000900D0050900C7050900BE050900B5052F
:100F80000800AD050800A50509009C0508009405AA
:100F900008008C050800840508007C05080074051D
:100FA00008006C050700650508005D05070056058B
:100FB00008004E05070047050700400508003805F2
:100FC0000700310507002A050700230507001C0557
:100FD0000600160507000F050700080506000205B4
:100FE0000700FB040600F5040700EE040600E80411
:100FF0000600E2040700DB040600D5040600CF0467
:101000000600C9040600C3040600BD040600B704B8
:101010000600B1040500AC040600A6040600A00406
:1010200005009B04060095040500900406008A0450
:10103000050085040500800406007A040500750497
:101040000500700405006B040500660405006104DA
:1010500005005C04050057040500520405004D041A
:10106000050048040500430405003E0404003A045A
:10107000050035040500300404002C040500270495
:101080000400230405001E0404001A0404001604CE
:101090000500110404000D04040009040500040403
:1010A000040000040400FC030400F8030400F4033B
:1010B0000400F0030400EC030400E8030400E4036C
:1010C0000400E0030400DC030400D8030400D4039C
:1010D0000400D0030400CC030400C8030300C503CC
:1010E000030024F404D9201BC40C5C0E9804C4092A
:1010F0005F0265077101F405F900FB04B3004804C1
:101100008700C10369005803550003034500BE0270
:101110003A008402310053022A0029022500040209
:101120002000E4011C00C8011900AF01170098015C
:1011300014008401130071011000610110005101BD
:101140000E0043010D0036010B002B010B002001A6
:101150000B00150109000C01090003010800FB0048
:101160000800F3000800EB000700E4000600DE00C2
:101170000600D8000600D2000600CC000500C7001B
:101180000500C2000500BD000400B9000400B50060
:101190000400B1000400AD000400A9000400A50093
:1011A0000300A20003009F0004009B0003009800BE
:1011B00003009500020093000300900003008D00DF
:1011C00002008B00030088000200860002008400F9
:1011D0000300810002007F0002007D0002007B000E
:1011E000020079000200770001007600020074001E
:1011F000020072000100710002006F0002006D0029
:1012000001006C0002006A00010069000200670032
:101210000100660001006500010064000200620038
:10122000010061000100600001005F0002005D003C
:1012300001005C0001005B0001005A000100590040
:101240000100580001005700010056000100550040
:10125000010054000100530000005300010052003F
:10126000010051000100500001004F0001004E003C
:1012700000004E0001004D0001004C0001004B0039
:1012800000004B0001004A00010049000100480035
:101290000000480001004700010046000000460031
:1012A000010045000000450001004400010043002A
:1012B0000000430001004200000042000100410024
:1012C000000041000100400001003F0000003F001D
:1012D00001003E0000003E0001003D0000003D0016
:1012E00001003C0000003C0000003C0001003B000D
:1012F00000003B0001003A0000003A000100390004
:1013000000003900010038000000380000003800FB
:1013100001003700000037000100360000003600F1
:1013200000003600010035000000350000003500E7
:1013300001003400000034000000340001003300DC
:1013400000003300000033000100320000003200D2
:1013500000003200010031000000310000003100C7
:1013600001003000000030000000300001002F00BC
:1013700000002F0000002F0000002F0001002E00B1
:1013800000002E0000002E0001002D0000002D00A6
:1013900000002D0000002D0001002C0000002C009A
:1013A00000002C0000002C0001002B0000002B008E
:1013B00000002B0000002B0001002A0000002A0082
:1013C00000002A0000002A00010029000000290076
:1013D0000000290000002900000029000100280069
:1013E000000028000000280000002800000028005D
:1013F0000100270000002700000027000000270050
:101400000000270001002600000026000000260042
:101410000000260000002600010025000000250035
:101420000000250000002500000025000000250028
:10143000010024000000240000002400000024001B
:10144000000024000100230000002300000023000E
:101450000000230000002300000023000000230000
:1014600001002200000022000000220000002200F3
:1014700000002200000022000100210000002100E5
:1014800000002100000021000000210000002100D8
:1014900000002100010020000000200000002000CA
:1014A00000002000000020000000200000002000BC
:1014B0000000200001001F0000001F0000001F00AE
:1014C00000001F0000001F0000001F0000001F00A0
:1014D00001001E0000001E0000001E0000001E0093
:1014E00000006563686F3A004572723A204D4158BA
:1014F00054454D50204245440054656D70657261FD
:101500007475726520686561746564206265642025
:101510007377697463686564206F66662E204D4139
:101520005854454D50207472696767657265642030
:101530002121004572723A204D494E54454D5000CC
:101540003A204578747275646572207377697463A4
:10155000686564206F66662E204D494E54454D5097
:101560002074726967676572656420210045727234
:101570003A204D415854454D50003A2045787472F8
:1015800075646572207377697463686564206F663B
:10159000662E204D415854454D502074726967673E
:1015A000657265642021004572723A2054454D50A1
:1015B0002046414C4C204552524F5200457874729F
:1015C00075646572207377697463686564206F66FB
:1015D000662E2054656D7065726174757265206643
:1015E000656C6C20746F6F206D7563682064757214
:1015F000696E67207072696E742100202D20496E1B
:1016000076616C6964206578747275646572206EA9
:10161000756D626572202100504944204175746FD8
:1016200074756E652066696E697368656421205003
:10163000757420746865206C617374204B702C2065
:101640004B6920616E64204B6420636F6E7374611C
:101650006E74732066726F6D2061626F76652069AB
:101660006E746F20436F6E66696775726174696F1F
:101670006E2E6800504944204175746F74756E6514
:10168000206661696C6564212074696D656F75748D
:101690000020403A006F6B20543A006F6B20423AB2
:1016A00000504944204175746F74756E6520666101
:1016B000696C6564212054656D7065726174757222
:1016C0006520746F6F206869676800204B643A205A
:1016D00000204B693A2000204B703A200020436CD8
:1016E00061737369632050494420002054753A2087
:1016F00000204B753A2000206D61783A2000206D63
:10170000696E3A200020643A200020626961733AD1
:1017100020004572726F723A0070012C019001270F
:1017200001B0012201C0011D01F0011801100213D6
:101730000130020E016002090190020401C002FFA3
:10174000000003FA004003F5008003F000D003EB33
:10175000002004E6007004E100E004DC004005D74E
:1017600000C005D2004006CD00D006C8008007C3E7
:10177000003008BE00F008B900C009B400B00AAFDC
:1017800000B00BAA00D00CA500000EA000500F9BCB
:1017900000C01096005012910000148C00C01587F4
:1017A00000B0178200B0197D00D01B7800001E73B6
:1017B0000040206E0090226900F024640040275F02
:1017C0000090295A00E02B5500102E500020304B7D
:1017D0000010324600E033410090353C00103737AE
:1017E0000070383200A0392D00B03A2800A03B2309
:1017F00000603C1E00103D1900903D1400103E0F8B
:1018000000703E0A00C03E0500003F0000436172C8
:10181000642072656D6F766564004361726420694F
:101820006E736572746564002D2D3A2D2D002D2D7B
:101830002D005344002059000120000120004D36A6
:101840003030004368616E67652066696C616D6564
:101850006E7400466C6F7700466C6F770046616E61
:101860002073706565640046616E20737065656401
:101870000042656400426564004E6F7A7A6C6500D0
:101880004E6F7A7A6C6500537065656400537065BD
:101890006564004D61696E00580059005A00457832
:1018A000747275646572004578747275646572004F
:1018B0004D6F7665205A004D6F76652059004D6F4B
:1018C00076652058004D6F76652061786973004D0C
:1018D0006F766520302E316D6D004D6F766520314D
:1018E0006D6D004D6F76652031306D6D0050726505
:1018F00070617265004D6F76652061786973004D87
:1019000038300053776974636820706F7765722090
:101910006F6E004D38310053776974636820706FC3
:10192000776572206F666600436F6F6C646F776EC9
:1019300000507265686561742041425300507265C1
:101940006865617420504C4100473238004175741D
:101950006F20686F6D65004D3834004469736162B3
:101960006C65207374657070657273004D61696E8B
:101970000053746F7265206D656D6F7279004265FA
:101980006400426564004E6F7A7A6C65004E6F7A2F
:101990007A6C650046616E2073706565640046610F
:1019A0006E2073706565640054656D706572617456
:1019B0007572650053746F7265206D656D6F727915
:1019C0000042656400426564004E6F7A7A6C65007F
:1019D0004E6F7A7A6C650046616E2073706565643F
:1019E0000046616E2073706565640054656D7065B6
:1019F000726174757265005072656865617420412A
:101A0000425320636F6E6600507265686561742092
:101A1000504C4120636F6E66005049442D43005086
:101A200049442D43005049442D44005049442D441D
:101A3000005049442D49005049442D490050494423
:101A40002D50005049442D500020022046616374FF
:101A50000020022046616374002002204D6178005E
:101A60002002204D6178002002204D696E00200286
:101A7000204D696E004F6666004F6E20004F66660F
:101A8000004F6E20004175746F74656D7000466183
:101A90006E2073706565640046616E2073706565C5
:101AA000640042656400426564004E6F7A7A6C653A
:101AB000004E6F7A7A6C6500436F6E74726F6C00C3
:101AC0004573746570732F6D6D0045737465707325
:101AD0002F6D6D005A73746570732F6D6D005A739E
:101AE000746570732F6D6D005973746570732F6D0D
:101AF0006D005973746570732F6D6D005873746544
:101B000070732F6D6D005873746570732F6D6D0059
:101B1000412D7265747261637400412D7265747237
:101B200061637400416D6178206500416D617820CA
:101B30006500416D6178207A00416D6178207A00FE
:101B4000416D6178207900416D6178207900416DA7
:101B50006178207800416D61782078005654726178
:101B600076206D696E005654726176206D696E0044
:101B7000566D696E00566D696E00566D6178206510
:101B800000566D6178206500566D6178207A0056A8
:101B90006D6178207A00566D6178207900566D610C
:101BA00078207900566D6178207800566D61782034
:101BB000780056652D6A65726B0056652D6A6572F0
:101BC0006B00567A2D6A65726B00567A2D6A6572C3
:101BD0006B005678792D6A65726B005678792D6A9C
:101BE00065726B00416363656C00416363656C0003
:101BF0005A204F6666736574005A204F6666736597
:101C00007400436F6E74726F6C00526573746F7200
:101C100065206661696C73616665004C6F61642064
:101C20006D656D6F72790053746F7265206D656DAF
:101C30006F7279004D6F74696F6E0054656D7065D9
:101C4000726174757265004D61696E004D383420A3
:101C5000582059205A2045004D3234004D3233204F
:101C6000257300052E2E004D61696E004E6F2053C6
:101C7000442063617264005072696E742066726FF2
:101C80006D2053440053746F70207072696E74003D
:101C9000526573756D65207072696E740050617560
:101CA0007365207072696E7400436F6E74726F6C2E
:101CB00000507265706172650054756E6500496E02
:101CC000666F2073637265656E000A00207A3A20A1
:101CD0000020793A200020783A200000000A0B0208
:101CE000090C0D0E080703040100000000000000AD
:101CF00000000000000000000000000000000000E4
:101D000000000000000000121110000000000000A0
:101D100000000000000000000000000000000000C3
:101D200000010210202008081020401020408002EE
:101D30000102010804020101020408102040808011
:101D40004020100804020180040201804020100895
:101D5000040201080402010102040810204080016D
:101D6000020408102040800505050507050808083D
:101D700008020202020A0A0808040404040101011C
:101D80000101010101030303030303030304070724
:101D9000070C0C0C0C0C0C0C0C02020202060606C2
:101DA00006060606060B0B0B0B0B0B0B0B0000229B
:101DB00000250028002B002E003100340002010015
:101DC00000050108010B0100002100240027002A62
:101DD000002D003000330001010000040107010A5A
:101DE00001024E414E494E495459494E46CDCCCC44
:101DF0003D0AD7233C17B7D13877CC2B329595E6DF
:101E0000241FB14F0A000020410000C84200401CBE
:101E10004620BCBE4CCA1B0E5AAEC59D740006516E
:101E200068BCC8D00A5111241FBECFEFD1E2DEBF7B
:101E3000CDBF00E00CBF14E0A0E0B2E0EAE8FDECAA
:101E400001E00BBF02C007900D92A63CB107D9F785
:101E500023E1A6ECB4E001C01D92A634B207E1F77D
:101E60001EE1C4E2DEE100E006C022970109FE01A6
:101E70000BBF0E9455DFCE31D10780E00807A9F7DC
:101E80000E946FD60C94B4E60C940000FC011482FE
:101E900017821382128288E594E0918380830895EB
:101EA00028E534E0FC01318320832781222319F0C7
:101EB00004960C94307D0895CF92DF92EF92FF92BA
:101EC0000F931F93CF93DF93EC018F96DFDFCE014B
:101ED000805B9F4FDBDF7E012FE6E20EF11C870166
:101EE0006E013BE5C31A3EEFD30AC801CFDF015EA6
:101EF0001F4F0C151D05C9F7FE01E955FE4F89E17D
:101F0000818314823596178ACE0186539E4FBEDF99
:101F1000FE01E558FD4F108211821282138238961D
:101F200010821182128213821A821B8218821982F5
:101F30006E0181E8C81A8DEFD80AF601108211826D
:101F400012821382F80111821082FE01E751FE4FC6
:101F5000108286E391E0F7019C01119221503040FC
:101F6000E1F7FE01E957FD4F81E080831EA61DA623
:101F70000E9427D468577C4E8F4F9F4FF601608395
:101F8000718382839383DF91CF911F910F91FF9093
:101F9000EF90DF90CF900895FC0120E03EE2DB015E
:101FA0004C91403241F0283011F430833196DB01FE
:101FB0004C91408331962F5F6F5F7F4F2B3079F7C5
:101FC000108208953F924F925F926F927F928F920C
:101FD0009F92AF92BF92CF92DF92EF92FF920F93B8
:101FE0001F93CF93DF93CDB7DEB7C758D1090FB694
:101FF000F894DEBF0FBECDBF8C016B017A01312C8E
:1020000084E0E80EF11C2801E1E14E0E511C58015C
:10201000F8E7AF1AFDEFBF0A480186E7881A8DEF8F
:10202000980A80E4682E712C6C0E7D1EE4E06E0E22
:10203000711CA201BE016F5F7F4FC7010E949A7B96
:1020400018160CF021C12C85322F3871303109F06F
:102050009CC0F501808191810197029708F495C099
:10206000BE016F5F7F4FCE0187589F4F95DFA096CF
:102070001FAEA097F6018081811107C067E173E070
:10208000CE01815A9F4F0E949FE3B601CE01815A33
:102090009F4F0E949FE3BE0167587F4FCE01815A38
:1020A0009F4F0E949FE367E173E0CE01815A9F4FEB
:1020B0000E949FE3CE01805C9F4FE8DE21E0AE01ED
:1020C00047585F4FB701C3010E94277F811139C074
:1020D000F50180819181892BA1F5EAE7F3E08491F4
:1020E000882341F09091C00095FFFCCF8093C600FB
:1020F0003196F5CFE9E1F3E08191882339F09091B1
:10210000C00095FFFCCF8093C600F6CF8091C00041
:1021100085FFFCCF8AE08093C600FE01E758FF4FA1
:102120008191882339F09091C00095FFFCCF809376
:10213000C600F6CF8091C00085FFFCCF8AE0809377
:10214000C6008BE1FE01EC5BFF4FDE01959601902E
:102150000D928A95E1F724968EAD9FAD24979CA3AE
:102160008BA388E594E09AA389A3AE014F5D5F4FEE
:10217000BE01615A7F4FC80125DFCE01819690DEF6
:10218000CE01805C9F4F8CDE54CF8981882309F477
:102190007BC0853E09F44DCF8E3209F44ACF8F358E
:1021A00009F447CFF8018189882331F08E3209F490
:1021B00040CF8F3509F43DCF23FD3BCF81E0303157
:1021C00009F080E0F80184A7811108C0898587346F
:1021D00009F02FCF8A858E3709F42BCF98012C5F19
:1021E0003F4FBE016F5F7F4FC901CA57DF4F288342
:1021F000C658D040C957DF4F3883C758D040CCDECF
:10220000F50180819181CA57DF4F2881C658D0409F
:10221000C957DF4F3881C758D0400097F1F4F60115
:102220008191882339F09091C00095FFFCCF809375
:10223000C600F6CFF9018191882339F09091C00052
:1022400095FFFCCF8093C600F6CF8091C00085FF3C
:10225000FCCF8AE08093C600ECCE8130910539F442
:10226000F40180819181019691838083E2CE02976F
:1022700009F0DFCE232D30E0F40180819181281711
:10228000390711F03394D5CEC957DF4F0FB6F89404
:10229000DEBF0FBECDBFDF91CF911F910F91FF9099
:1022A000EF90DF90CF90BF90AF909F908F907F90F6
:1022B0006F905F904F903F900895EF92FF920F9331
:1022C0001F93CF93DF93CDB7DEB76F970FB6F89418
:1022D000DEBF0FBECDBF8C01FC01E857FD4F118260
:1022E00010827C0183E3E80EF11C40E050E0BA016B
:1022F000C7010E944D7C8BE1F701DE01159601902C
:102300000D928A95E1F7F80181A992A99C838B83AC
:1023100088E594E09A838983AE014F5F5F4F6FE653
:1023200074E0C8014FDECE010196BADD6F960FB69C
:10233000F894DEBF0FBECDBFDF91CF911F910F91FB
:10234000FF90EF9008952BE1FB013496DC01149689
:1023500001900D922A95E1F7FB0122813381FC0166
:10236000338322830895EF92FF920F931F93CF93AD
:10237000DF93EC011B828EA9882321F0CE01C39646
:102380000E94307D7E0189E5E81A8EEFF80A45E368
:1023900060E0C7010E94B17781111FC0EAE7F3E056
:1023A0008491882341F09091C00095FFFCCF8093E9
:1023B000C6003196F5CFEDE6F3E08491882341F035
:1023C0009091C00095FFFCCF8093C6003196F5CF69
:1023D0008091C00085FFFCCF76C08E0104551E4F52
:1023E00041E0B701C8010E941A85811126C040E072
:1023F000B701C8010E941A8581111FC0E0E8F3E00F
:102400008491882341F09091C00095FFFCCF809388
:10241000C6003196F5CFEAE5F3E08491882341F0D8
:102420009091C00095FFFCCF8093C6003196F5CF08
:102430008091C00085FFFCCF46C0B801CE01C39695
:102440000E943E7A81111FC0E0E8F3E08491882366
:1024500041F09091C00095FFFCCF8093C60031966B
:10246000F5CFEAE4F3E08491882341F09091C00035
:1024700095FFFCCF8093C6003196F5CF8091C000C8
:1024800085FFFCCF20C081E08B83EAE7F3E08491F5
:10249000882341F09091C00095FFFCCF8093C60047
:1024A0003196F5CFEFE3F3E08491882341F09091EA
:1024B000C00095FFFCCF8093C6003196F5CF809188
:1024C000C00085FFFCCF8AE08093C6008E01015DCD
:1024D0001F4FB801CE01805B9F4F35DFC25BDF4FDE
:1024E00019830883DF91CF911F910F91FF90EF9097
:1024F0000895FC01128213820895FC012381222396
:1025000011F021E022830895FC0122812111128221
:102510000895AF92BF92CF92DF92EF92FF920F9306
:102520001F93CF93DF931F92CDB7DEB78C018FE25D
:10253000FB0181935F01D12C41E07801FBE5EF1AAB
:10254000FEEFFF0A9FE1C92E2D2D30E0F7018081BB
:10255000918128173907D8F4C29EC001C39E900DFF
:1025600011248D589F4FB501800F911F49830E9400
:10257000E579C50149815C010196F501208122239D
:1025800021F04D3810F44F5FF6CFD394DDCF47FDE7
:1025900011C0B501C80182539E4F0F90DF91CF91BA
:1025A0001F910F91FF90EF90DF90CF90BF90AF9071
:1025B0000C94E579F50110820F90DF91CF911F9176
:1025C0000F91FF90EF90DF90CF90BF90AF90089564
:1025D0002F923F924F925F926F927F928F929F9233
:1025E000AF92BF92CF92DF92EF92FF920F931F9321
:1025F000CF93DF93CDB7DEB7AC970FB6F894DEBFBD
:102600000FBECDBF8C016B01342EFC01838188236A
:1026100009F4D3C2EF52FE4F8081882309F4F8C039
:102620002111C4C07801F7E1EF1AFEEFFF0AF701AC
:102630008081882361F1E0E8F3E08491882341F010
:102640009091C00095FFFCCF8093C6003196F5CFE6
:10265000ECEFF2E08491882341F09091C00095FF67
:10266000FCCF8093C6003196F5CF4AE050E061E0A0
:1026700070E086EC94E00E94C2228091C00085FF49
:10268000FCCF8AE08093C6000E94303196C2EAE710
:10269000F3E08491882341F09091C00095FFFCCF36
:1026A0008093C6003196F5CFE3EEF2E08491882363
:1026B00041F09091C00095FFFCCF8093C600319609
:1026C000F5CFF6018191882339F09091C00095FFF4
:1026D000FCCF8093C600F6CFE8EDF2E0849188232A
:1026E00041F09091C00095FFFCCF8093C6003196D9
:1026F000F5CFF70180813DE8B32EB801B89E600D9B
:10270000711D112462517E4FC80103DFF7018081E2
:10271000F801B89EE00DF11D1124E251FE4F8191A8
:10272000882339F09091C00095FFFCCF8093C600BC
:10273000F6CFE2EDF2E08491882341F09091C00061
:1027400095FFFCCF8093C6003196F5CF5801FDE789
:10275000AF1AFDEFBF0AF50140815181628173819B
:102760002AE030E086EC94E00E94EE228091C000E6
:1027700085FFFCCF8AE08093C600F7012081F80135
:1027800084E0289FE00DF11D1124AF0146515E4FFA
:10279000F50180819181A281B381FA0180839183C7
:1027A000A283B3832F5FF70120832CC0EAE7F3E015
:1027B0008491882341F09091C00095FFFCCF8093D5
:1027C000C6003196F5CFE1ECF2E08491882341F028
:1027D0009091C00095FFFCCF8093C6003196F5CF55
:1027E000F6018191882339F09091C00095FFFCCFCC
:1027F0008093C600F6CF8091C00085FFFCCF8AE0B1
:102800008093C600C80182539E4F0E94307D30C025
:10281000F801E751FE4F1082EAE7F3E08491882344
:1028200041F09091C00095FFFCCF8093C600319697
:10283000F5CFE0EBF2E08491882341F09091C00065
:1028400095FFFCCF8093C6003196F5CFF6018191BC
:10285000882339F09091C00095FFFCCF8093C6008B
:10286000F6CF8091C00085FFFCCF8AE08093C60040
:10287000F8011282CE0101965C0108DB28019EE47A
:10288000490E511CC8018F96F20191838083F60195
:1028900080818F3209F084C06FE270E0C6010E942F
:1028A000AAE301967C012AE0222EE114F10409F446
:1028B0007DC06FE270E0C7010E94AAE34C0100975F
:1028C00009F475C0E816F90608F071C03C016E18ED
:1028D0007F08A301B701CE0180960E94CAE3E0E21F
:1028E000F0E0EC0FFD1FE60DF71D1082FE01B09623
:1028F0008191882339F09091C00095FFFCCF80939F
:10290000C600F6CF8091C00085FFFCCF2092C600A4
:10291000F201608171816115710519F06C5F7F4F63
:1029200002C060E070E021E0AE01405E5F4FCE018A
:1029300005960E94277F81112BC0ECE9F2E084917B
:10294000882341F09091C00095FFFCCF8093C60092
:102950003196F5CFFE01B0968191882339F09091A0
:10296000C00095FFFCCF8093C600F6CFEAE9F2E005
:102970008491882341F09091C00095FFFCCF809313
:10298000C6003196F5CF8091C00085FFFCCFEAC02C
:10299000F201B182A0827401FFEFEF1AFF0A85CF26
:1029A000C801805B9F4FF201918380837601C8014B
:1029B00082539E4F4C01F20160817181332009F4F2
:1029C00099C06115710519F06C5F7F4F02C060E01E
:1029D00070E021E0A701C4010E94277F882309F449
:1029E0005FC0F40181899289A389B489F801E5580F
:1029F000FD4F80839183A283B383ECE8F2E084915E
:102A0000D801A558BD4F882349F09091C00095FF8B
:102A1000FCCF8093C60031968491F5CFF701819168
:102A2000882339F09091C00095FFFCCF8093C600B9
:102A3000F6CFE4E8F2E08491882341F09091C00061
:102A400095FFFCCF8093C6003196F5CF4D915D91F7
:102A50006D917C912AE030E086EC94E00E94EE22B9
:102A60008091C00085FFFCCF8AE08093C600F8010A
:102A7000ED57FD4F1082118212821382E6E7F2E0D9
:102A80008491882341F09091C00095FFFCCF809302
:102A9000C6003196F5CF8091C00085FFFCCF85C080
:102AA000E2E6F2E08491882341F09091C00095FF26
:102AB000FCCF8093C6003196F5CFF7018191882332
:102AC00039F09091C00095FFFCCF8093C600F6CFFF
:102AD000E0E6F2E08491882341F09091C00095FFF8
:102AE000FCCF8093C6003196F5CF8091C00085FF62
:102AF000FCCF38C06115710519F06C5F7F4F02C0C3
:102B000060E070E026E5A701C4010E94277F8111E3
:102B10002DC0ECE4F2E08491882341F09091C00054
:102B200095FFFCCF8093C6003196F5CFF7018191D8
:102B3000882339F09091C00095FFFCCF8093C600A8
:102B4000F6CFEAE4F2E08491882341F09091C0004E
:102B500095FFFCCF8093C6003196F5CF8091C000E1
:102B600085FFFCCF8AE08093C60025C081E0F80194
:102B70008083E8E3F2E08491882341F09091C000E3
:102B800095FFFCCF8093C6003196F5CFF601819179
:102B9000882339F09091C00095FFFCCF8093C60048
:102BA000F6CF8091C00085FFFCCF8AE08093C600FD
:102BB000C7010E94B0AAC50173D9AC960FB6F894AC
:102BC000DEBF0FBECDBFDF91CF911F910F91FF9060
:102BD000EF90DF90CF90BF90AF909F908F907F90BD
:102BE0006F905F904F903F902F90089521E0FC01EF
:102BF000218340E0EDCC3F924F925F926F927F92A3
:102C00008F929F92AF92BF92CF92DF92EF92FF92FC
:102C10000F931F93CF93DF93CDB7DEB7AC970FB66B
:102C2000F894DEBF0FBECDBF7C015B01FC01838148
:102C3000882309F400C1C70182539E4F0E94307D52
:102C4000F7011282CE0101966C0120D927019EE482
:102C5000490E511CC7018F96F20191838083F501C3
:102C600080818F3209F084C06FE270E0C5010E945C
:102C7000AAE38C010F5F1F4F4AE0342E01151105A6
:102C800009F47CC06FE270E0C8010E94AAE34C0125
:102C9000009709F474C00817190708F070C03C01C8
:102CA000601A710AA301B801CE0180960E94CAE39E
:102CB000E0E2F0E0EC0FFD1FE60DF71D1082FE01D3
:102CC000B0968191882339F09091C00095FFFCCF98
:102CD0008093C600F6CF8091C00085FFFCCF309274
:102CE000C600F201608171816115710519F06C5F98
:102CF0007F4F02C060E070E021E0AE01405E5F4FB8
:102D0000CE0105960E94277F81112BC0E4E2F2E0FC
:102D10008491882341F09091C00095FFFCCF80936F
:102D2000C6003196F5CFFE01B0968191882339F027
:102D30009091C00095FFFCCF8093C600F6CFE2E2F1
:102D4000F2E08491882341F09091C00095FFFCCF80
:102D50008093C6003196F5CF8091C00085FFFCCFEF
:102D600065C0F201D182C08284010F5F1F4F86CF00
:102D7000C701805B9F4FF201918380838501F2013F
:102D800080819181009711F0049602C080E090E06C
:102D9000B8010E94FD7F882301F1E4E1F2E0849113
:102DA000882341F09091C00095FFFCCF8093C6002E
:102DB0003196F5CFF8018191882339F09091C000C8
:102DC00095FFFCCF8093C600F6CFF701ED57FD4F7E
:102DD00010821182128213822CC0ECEFF1E08491F8
:102DE000882341F09091C00095FFFCCF8093C600EE
:102DF0003196F5CFF8018191882339F09091C00088
:102E000095FFFCCF8093C600F6CFEAEFF1E0849106
:102E1000882341F09091C00095FFFCCF8093C600BD
:102E20003196F5CF8091C00085FFFCCF8AE080937A
:102E3000C600C60135D8AC960FB6F894DEBF0FBEFB
:102E4000CDBFDF91CF911F910F91FF90EF90DF9059
:102E5000CF90BF90AF909F908F907F906F905F903A
:102E60004F903F900895CF93DF93EC018B8188239F
:102E7000C1F1E8EEF1E08491882341F09091C00027
:102E800095FFFCCF8093C6003196F5CFFE01ED573C
:102E9000FD4F40815181628173812AE030E086ECF0
:102EA00094E00E94EE22E6EEF1E08491882341F066
:102EB0009091C00095FFFCCF8093C6003196F5CF6E
:102EC000C558DD4F488159816A817B812AE030E015
:102ED00086EC94E00E94EE228091C00085FFFCCF3A
:102EE00011C0E6EDF1E08491882341F09091C0009B
:102EF00095FFFCCF8093C6003196F5CF8091C0003E
:102F000085FFFCCF8AE08093C600DF91CF910895C2
:102F1000AF92BF92CF92DF92EF92FF920F931F93E7
:102F2000CF93DF935C01EB01FB0101900020E9F7F7
:102F30008F0101501109061B170B6C01F2E3CF1A28
:102F4000FEEFDF0AF60110826EE470E0CE010E940F
:102F5000AAE37C01009729F4F8013197EC0FFD1FDB
:102F60000DC060E270E00E94AAE3EC0121966AE2E3
:102F700070E0C7010E94AAE3FC0131978DE08183D4
:102F80008AE082831382BE01C50186539E4F0E9450
:102F9000C381F6018081882309F1E0E8F3E08491A0
:102FA000882341F09091C00095FFFCCF8093C6002C
:102FB0003196F5CFE0ECF1E08491882341F09091D7
:102FC000C00095FFFCCF8093C6003196F5CF80916D
:102FD000C00085FFFCCF8AE08093C600DF91CF91CF
:102FE0001F910F91FF90EF90DF90CF90BF90AF9027
:102FF00008952F923F924F925F926F927F928F929D
:103000009F92AF92BF92CF92DF92EF92FF920F9377
:103010001F93CF93DF93CDB7DEB7CC55D1090FB651
:10302000F894DEBF0FBECDBF8C0189579D4F5C0168
:10303000662339F0F5011082F801838181111DC0EA
:1030400015C0FC018081882309F4ADC0F801E15866
:10305000FD4FC080D180E280F3800E9427D4C61645
:10306000D706E806F90608F49EC0E4CFC8017BD96C
:10307000F8018381882309F496C0F80186A58F930F
:1030800085A58F9387EB91E09F938F937E01FFE35C
:10309000EF0EF11CFF92EF920E94D9E30F900F9078
:1030A0000F900F900F900F90B12CF701019000201E
:1030B000E9F73197EE19FF09BE1684F46701CB0CCE
:1030C000D11CB7FCDA94F6018081992787FD909591
:1030D0000E9430E3F6018083B394E7CF4801F3E325
:1030E0008F0E911C40E050E0BA01C4010E944D7C5B
:1030F000512CCE0101966C0150EB652E51E0752EDE
:103100005E0191E2A90EB11C40E050E0B601C4019D
:103110000E949A7B1816DCF5412CF60101900020E4
:10312000E9F73197EC19FD094E1674F41601240CD9
:10313000311C47FC3A94F101808190E00E9430E319
:10314000F10180834394E9CF8A858E37E9F245E027
:1031500050E0B701C6010E94BCE3892BA9F6FF929B
:10316000EF927F926F92BF92AF920E94D9E3C50116
:103170000E946A278CEA91E00E94DD270F900F9051
:103180000F900F900F900F9055245394BDCF511076
:1031900004C08FEF9FEFF80104C0F80185A596A544
:1031A000019696A785A7C45ADF4F0FB6F894DEBFE5
:1031B0000FBECDBFDF91CF911F910F91FF90EF9088
:1031C000DF90CF90BF90AF909F908F907F906F9047
:1031D0005F904F903F902F9008950F931F93CF9340
:1031E000DF93EC018C0102531E4FC8010E94E67C64
:1031F000C8010E94307D18821982DF91CF911F9102
:103200000F910895EF92FF920F931F93CF93DF9347
:10321000CDB7DEB76F970FB6F894DEBF0FBECDBF48
:103220008C017C018EE4E80EF11CC801805B9F4F8D
:10323000F70191838083E65CFD4F22E030E031832B
:103240002083329670E07183608340E050E0BA01E1
:1032500004960E944D7CF701808191812BE1FC0155
:103260003496DE01159601900D922A95E1F7FC0146
:10327000828193819C838B8388E594E09A83898300
:10328000AE014F5F5F4F6FE674E0C8010E94E20F2E
:10329000CE0101960E94500F6F960FB6F894DEBFD4
:1032A0000FBECDBFDF91CF911F910F91FF90EF9097
:1032B0000895CF92DF92EF92FF920F931F93CF93D7
:1032C000DF93CDB7DEB76F970FB6F894DEBF0FBEB2
:1032D000CDBF8C016C012EE4C20ED11C805B9F4FD0
:1032E000F60191838083E65CFD4F21E030E031837D
:1032F00020837801F6E7EF1AFDEFFF0AF70111824C
:10330000108240E050E0BA0104960E944D7CF60124
:10331000808191812BE1FC013496DE0115960190AC
:103320000D922A95E1F7FC01828193819C838B8326
:1033300088E594E09A838983AE014F5F5F4F6FE623
:1033400074E0C8010E94E20FCE0101960E94500F66
:10335000F701808191816F960FB6F894DEBF0FBEA2
:10336000CDBFDF91CF911F910F91FF90EF90DF9034
:10337000CF900895AF92BF92CF92DF92EF92FF92DB
:103380000F931F93CF93DF93CDB7DEB76F970FB631
:10339000F894DEBF0FBECDBF8C017B01CE0101963C
:1033A0000E94460FF801E95AFF4F808168018111A0
:1033B00004C02FE2C20ED11C03C080E5C80ED11C90
:1033C00021E0A701B6016C5F7F4FCE0105960E94F8
:1033D000277F81112DC0EAE7F3E08491882341F033
:1033E0009091C00095FFFCCF8093C6003196F5CF39
:1033F000E6E9F1E08491882341F09091C00095FFC7
:10340000FCCF8093C6003196F5CFF70181918823D8
:1034100039F09091C00095FFFCCF8093C600F6CFA5
:103420008091C00085FFFCCF8AE08093C60036C043
:10343000F801EB55FE4F808191818A30910530F57E
:103440009C012F5F3F4F318320832FE1289F700124
:10345000299FF00C11242FE6E20EF11CE00EF11E64
:103460005C01B701C7014F960E94A31181E0A81A21
:10347000B1082FE1E21AF1088FEFA816B80689F714
:10348000B601C80181599F4F0E94A311BE016F5F11
:103490007F4FC801805B9F4F0E94A311CE01019610
:1034A0000E94500F6F960FB6F894DEBF0FBECDBFCF
:1034B000DF91CF911F910F91FF90EF90DF90CF9010
:1034C000BF90AF900895EF92FF920F931F93CF9309
:1034D000DF93EC01CB55DE4F288139812115310571
:1034E000F9F021503109398328838C0101591F4F8C
:1034F000B801805B9F4F0E94A311C80100E010E05B
:103500007C012FE1E20EF11C28813981021713079B
:1035100038F40F5F1F4FB7010E94A311C701F0CF0E
:10352000DF91CF911F910F91FF90EF900895EF924F
:10353000FF920F931F93CF93DF93EC010E94038EB2
:103540008E0107511E4FF80180819E0122533E4F8C
:1035500079018823A1F1C9010E94307DF8018081A1
:1035600081508083BE01FDE88F9F600D711D112485
:1035700062517E4F21E041E0CE012AD8F8018081DE
:10358000FE0124E0829FE00DF11D1124E651FE4F63
:103590004081518162817381FE01ED57FD4F40836F
:1035A000518362837383C7010E944D7CCE01DF91FA
:1035B000CF911F910F91FF90EF900C947D120E947C
:1035C000918EC7010E94307D1A828AE891E00E94A4
:1035D000DD278091BE0E8823F9F01092BE0EC091B7
:1035E0002207D0E0CC0FDD1FC551DE4E6881798106
:1035F000882777FD8095982F0E94D2DB20913D028D
:1036000030913E0240913F02509140020E9433DDD2
:10361000181614F419821882DF91CF911F910F911F
:10362000FF90EF900895EF92FF920F931F93CF9327
:10363000DF931F92CDB7DEB78C017B01460FF701F8
:1036400061917F01F8018081918149830E94FDE5AC
:10365000F8018081918101969183808349814E1187
:10366000EECF0F90DF91CF911F910F91FF90EF90D0
:103670000895EF92FF920F931F93CF93DF931F92C2
:10368000CDB7DEB78C017B01460FF80180819181B7
:1036900049830E94F5E5F70181937F01F80180815C
:1036A000918101969183808349814E11EECF0F90D5
:1036B000DF91CF911F910F91FF90EF9008950F939D
:1036C0001F93CF93DF93CDB7DEB72C970FB6F89447
:1036D000DEBF0FBECDBF80E390E3A0E3B0E08D83FB
:1036E0009E83AF83B88704E610E01C870B8744E015
:1036F000BE016B5F7F4FCE010B9695DF40E16FE11E
:103700007FE0CE010B968FDF40E16FE27FE0CE01DC
:103710000B9689DF40E16FE07FE0CE010B9683DFFF
:1037200044E067E07FE0CE010B967DDF44E063E09C
:103730007FE0CE010B9677DF44E06BE07FE0CE01C7
:103740000B9671DF44E063EF7EE0CE010B966BDFFA
:1037500044E06FE37FE0CE010B9665DF44E06FEF5E
:103760007EE0CE010B965FDF44E06BEF7EE0CE01A2
:103770000B9659DF44E067EF7EE0CE010B9653DFF6
:103780004CE066E377E0CE010B964DDF42E06BE460
:1037900072E1CE010B9647DF42E069E472E1CE01AF
:1037A0000B9641DF42E067E472E1CE010B963BDF0E
:1037B00042E065E472E1CE010B9635DF42E063E45E
:1037C00072E1CE010B962FDF42E061E472E1CE019F
:1037D0000B9629DF44E063E277E0CE010B9623DF0E
:1037E00044E060E872E0CE010B961DDF44E06CE738
:1037F00072E0CE010B9617DF44E068E772E0CE017D
:103800000B9611DF80E290E09A87898742E0BE0143
:10381000675F7F4FCE010B9606DF86E591E3A0E35D
:10382000B0E089839A83AB83BC831C870B8744E019
:10383000BE016F5F7F4FCE010B96F5DEEBE9F5E041
:103840008491882341F09091C00095FFFCCF809334
:10385000C6003196F5CFEBE8F5E08491882341F07E
:103860009091C00095FFFCCF8093C6003196F5CFB4
:103870008091C00085FFFCCF8AE08093C6002C9623
:103880000FB6F894DEBF0FBECDBFDF91CF911F9171
:103890000F910895CF93DF93CBE9D5E0FE0184919A
:1038A000882341F09091C00095FFFCCF8093C60023
:1038B0003196F5CFEBE7F5E08491882341F09091C4
:1038C000C00095FFFCCF8093C6003196F5CF809164
:1038D000C00085FFFCCF8AE08093C600FE01849182
:1038E000EBE9F5E0882349F09091C00095FFFCCF0B
:1038F0008093C60031968491F5CF40911F0F50916F
:10390000200F6091210F7091220F83E795E00E94B4
:103910002B274091230F5091240F6091250F709118
:10392000260F80E795E00E942B274091270F5091AA
:10393000280F6091290F70912A0F8DE695E00E9463
:103940002B2740912B0F50912C0F60912D0F7091D0
:103950002E0F8AE695E00E942B278091C00085FFFC
:10396000FCCF8AE08093C600FE018491EBE9F5E08C
:10397000882349F09091C00095FFFCCF8093C6004A
:1039800031968491F5CFE0E5F5E08491882341F00C
:103990009091C00095FFFCCF8093C6003196F5CF83
:1039A0008091C00085FFFCCF8AE08093C600FE01B5
:1039B0008491EBE9F5E0882349F09091C00095FFF0
:1039C000FCCF8093C60031968491F5CF40912F0FA4
:1039D0005091300F6091310F7091320F87E495E074
:1039E0000E942B274091330F5091340F6091350F77
:1039F0007091360F84E495E00E942B274091370F99
:103A00005091380F6091390F70913A0F81E495E031
:103A10000E942B2740913B0F50913C0F60913D0F2E
:103A200070913E0F8EE395E00E942B278091C0009D
:103A300085FFFCCF8AE08093C600FE018491EBE90C
:103A4000F5E0882349F09091C00095FFFCCF80936A
:103A5000C60031968491F5CFE0E2F5E084918823A9
:103A600041F09091C00095FFFCCF8093C600319645
:103A7000F5CF8091C00085FFFCCF8AE08093C6001F
:103A8000FE018491EBE9F5E0882349F09091C000B4
:103A900095FFFCCF8093C60031968491F5CF40917D
:103AA0000F0F5091100F6091110F7091120F87E15D
:103AB00095E00E943C274091130F5091140F6091A4
:103AC000150F7091160F84E195E00E943C274091FC
:103AD000170F5091180F6091190F70911A0F81E113
:103AE00095E00E943C2740911B0F50911C0F609164
:103AF0001D0F70911E0F8EE095E00E943C27809173
:103B0000C00085FFFCCF8AE08093C600FE0184914F
:103B1000EBE9F5E0882349F09091C00095FFFCCFD8
:103B20008093C60031968491F5CFE9EDF4E084915D
:103B3000882341F09091C00095FFFCCF8093C60090
:103B40003196F5CF8091C00085FFFCCF8AE080934D
:103B5000C600FE018491EBE9F5E0882349F09091DD
:103B6000C00095FFFCCF8093C60031968491F5CFBD
:103B70004091070F5091080F6091090F70910A0F43
:103B800080ED94E00E942B274091030F5091040F89
:103B90006091050F7091060F8DEC94E00E942B2729
:103BA0008091C00085FFFCCF8AE08093C600FE01B3
:103BB0008491EBE9F5E0882349F09091C00095FFEE
:103BC000FCCF8093C60031968491F5CFEAE1F4E012
:103BD0008491882341F09091C00095FFFCCF8093A1
:103BE000C6003196F5CF8091C00085FFFCCF8AE0FA
:103BF0008093C600FE018491EBE9F5E0882349F04B
:103C00009091C00095FFFCCF8093C60031968491BF
:103C1000F5CF40910B0F50910C0F60910D0F7091EB
:103C20000E0F81E194E00E942B274091F30E5091FA
:103C3000F40E6091F50E7091F60E8EE094E00E9405
:103C40002B2740913F0F5091400F6091410F709191
:103C5000420F8BE094E00E943C274091FF0E509170
:103C6000000F6091010F7091020F88E094E00E94B4
:103C70002B274091FB0E5091FC0E6091FD0E709130
:103C8000FE0E85E094E00E942B274091F70E5091A4
:103C9000F80E6091F90E7091FA0E82E094E00E94A5
:103CA0002B278091C00085FFFCCF8AE08093C6005F
:103CB000FE018491EBE9F5E0882349F09091C00082
:103CC00095FFFCCF8093C60031968491F5CFE0EF4D
:103CD000F3E08491882341F09091C00095FFFCCFE0
:103CE0008093C6003196F5CF8091C00085FFFCCF50
:103CF0008AE08093C600FE018491EBE9F5E0882319
:103D000049F09091C00095FFFCCF8093C60031969A
:103D10008491F5CF4091360750913707609138076D
:103D20007091390787EE93E00E942B2740913A0764
:103D300050913B0760913C0770913D0784EE93E002
:103D40000E942B2740913E0750913F07609140070A
:103D50007091410781EE93E00E942B278091C00073
:103D600085FFFCCF8AE08093C600FE018491EBE9D9
:103D7000F5E0882349F09091C00095FFFCCF809337
:103D8000C60031968491F5CFE3EDF3E0849188236A
:103D900041F09091C00095FFFCCF8093C600319612
:103DA000F5CF8091C00085FFFCCF8AE08093C600EC
:103DB000FE01C491EBE9F5E0CC2349F08091C0000D
:103DC00085FFFCCFC093C6003196C491F5CF4091DA
:103DD000800250918102609182027091830289EC8D
:103DE00093E00E942B2760917C0270917D0280916C
:103DF0007E0290917F020E94CA99AB01BC0186ECC1
:103E000093E00E942B276091780270917902809153
:103E10007A0290917B020E94D699AB01BC0183EC9F
:103E200093E00E942B278091C00085FFFCCF8AE0A1
:103E30008093C600DF91CF910895AF92BF92CF9249
:103E4000DF92EF92FF920F931F93CF93DF93CDB743
:103E5000DEB7E0970FB6F894DEBF0FBECDBF80E1AE
:103E6000E7EAF2E0DE01919601900D928A95E1F782
:103E700080E1E7EBF2E0DE01519601900D928A9528
:103E8000E1F780E1E7ECF2E0DE01119601900D929E
:103E90008A95E1F76E0181E2C80ED11C8FE1E82E10
:103EA0008FE0F82E8E010F5E1F4F6FE27FE0AE01B4
:103EB0004F5F5F4F9FE0A92E9FE0B92E20E030E0DA
:103EC000F60181919191A191B1916F01F7018193D7
:103ED0009193A193B1937F01F80181919191A19167
:103EE000B1918F01FB0181939193A193B193BF0194
:103EF000FA0181919191A191B191AF01F501819365
:103F00009193A193B1935F012F5F3F4F243031050F
:103F1000B9F60E94FA6480E090E8A2EAB4E48093E3
:103F2000070F9093080FA093090FB0930A0F80E03A
:103F300090E8ABE3B5E48093030F9093040FA09354
:103F4000050FB093060F10920B0F10920C0F1092EA
:103F50000D0F10920E0F80E29EE4A0E0B0E080937F
:103F60003F0F9093400FA093410FB093420F1092D8
:103F7000F30E1092F40E1092F50E1092F60E80E0F1
:103F800090E0A8E8B1E48093FF0E9093000FA09317
:103F9000010FB093020F8DEC9CECACECBEE3809370
:103FA000FB0E9093FC0EA093FD0EB093FE0E80E0EE
:103FB00090E0A0EAB0E48093F70E9093F80EA093FF
:103FC000F90EB093FA0E10923E0710923F0710922E
:103FD00040071092410710923A0710923B07109247
:103FE0003C0710923D071092360710923707109247
:103FF00038071092390782ED90E090934C1280932D
:104000004B1287E390E090934A12809349128FEF0E
:1040100090E090934812809347122BEE30E030935B
:1040200046122093451220E530E03093441220934D
:104030004312909342128093411286E696E6A6E6DA
:10404000BFEB8093230790932407A0932507B09399
:1040500026078AE999E9A1EBB1E480938002909365
:104060008102A0938202B093830261E77DE38AE834
:104070009FE30E94C49960937C0270937D028093B9
:104080007E0290937F0260E070E084EE92E40E94F2
:10409000D099609378027093790280937A0290931A
:1040A0007B020E94449080E090E0A0E8BFE3809310
:1040B000740290937502A0937602B0937702EBE9B5
:1040C000F5E08491882341F09091C00095FFFCCFEA
:1040D0008093C6003196F5CFE7E8F3E0849188231A
:1040E00041F09091C00095FFFCCF8093C6003196BF
:1040F000F5CF8091C00085FFFCCF8AE08093C60099
:10410000E0960FB6F894DEBF0FBECDBFDF91CF9122
:104110001F910F91FF90EF90DF90CF90BF90AF90E5
:104120000895CF93DF93CDB7DEB72C970FB6F894F1
:10413000DEBF0FBECDBF84E690E09C878B8786E50F
:1041400091E3A0E3B0E089839A83AB83BC8344E02E
:10415000BE016B5F7F4FCE010B968BDA43E050E0E0
:10416000BE016B5F7F4FCE0101960E94BCE3892B9D
:1041700009F0B1C040E16FE17FE0CE010B9679DA42
:1041800040E16FE27FE0CE010B9673DA40E16FE031
:104190007FE0CE010B966DDA0E94FA6444E067E09E
:1041A0007FE0CE010B9665DA44E063E07FE0CE016C
:1041B0000B965FDA44E06BE07FE0CE010B9659DAB4
:1041C00044E063EF7EE0CE010B9653DA44E06FE308
:1041D0007FE0CE010B964DDA44E06FEF7EE0CE013A
:1041E0000B9647DA44E06BEF7EE0CE010B9641DAA6
:1041F00044E067EF7EE0CE010B963BDA4CE066E3ED
:1042000077E0CE010B9635DA42E06BE472E1CE0145
:104210000B962FDA42E069E472E1CE010B9629DABF
:1042200042E067E472E1CE010B9623DA42E065E4F6
:1042300072E1CE010B961DDA42E063E472E1CE0139
:104240000B9617DA42E061E472E1CE010B9611DAC7
:1042500044E063E277E0CE010B960BDA44E060E8DD
:1042600072E0CE010B9605DA44E06CE772E0CE0115
:104270000B96FFD944E068E772E0CE010B96F9D9BE
:1042800042E0BE01675F7F4FCE010B96F2D90E94DC
:104290004490EBE9F5E08491882341F09091C000CF
:1042A00095FFFCCF8093C6003196F5CFE9EAF3E0A5
:1042B0008491882341F09091C00095FFFCCF8093BA
:1042C000C6003196F5CF8091C00085FFFCCF8AE013
:1042D0008093C60001C0B1DD2C960FB6F894DEBF06
:1042E0000FBECDBFDF91CF9108951F920F920FB6F1
:1042F0000F9211240BB60F922F933F934F935F931E
:104300006F938F939F93EF93FF936091C6002091DB
:10431000470530914805C90101968F77992740914B
:10432000490550914A058417950741F0F901E95371
:10433000FB4F60839093480580934705FF91EF9171
:104340009F918F916F915F914F913F912F910F901E
:104350000BBE0F900FBE0F901F9018959A01AB01E6
:10436000211581EE38074105510549F182E080931E
:10437000C00060E079E08DE390E00E9423DF2150EF
:10438000310941095109CA01B90122E030E040E098
:1043900050E00E9423DF3093C5002093C400809139
:1043A000C10080618093C1008091C10088608093CA
:1043B000C1008091C10080688093C100089510926F
:1043C000C00020E130E0E7CF2091490530914A0557
:1043D00080914705909148058217930771F0F90184
:1043E000E953FB4F80812F5F3F4F2F773327309367
:1043F0004A052093490590E008958FEF9FEF0895B7
:104400008091490590914A0590934805809347050E
:1044100008954F925F926F927F928F929F92AF9288
:10442000BF92CF92DF92EF92FF920F931F93CF93A1
:10443000DF93CDB7DEB7A0970FB6F894DEBF0FBEFF
:10444000CDBF5C014115510561057105E9F420E01E
:1044500030E040E350E060E070E0A0960FB6F894E2
:10446000DEBF0FBECDBFDF91CF911F910F91FF90A7
:10447000EF90DF90CF90BF90AF909F908F907F9004
:104480006F905F904F905BC08E010F5F1F4FC12CEC
:10449000D12C76014801422E512C612C712C8FEFCA
:1044A000C81AD80AE80AF80ACB01BA01A301920196
:1044B0000E9401DFCA01F80161938F01A901BC01CB
:1044C000411551056105710551F7F1E0CF1AD10889
:1044D000E108F108F401EC0DFD1D80818A3010F433
:1044E00040E301C047E3480F552747FD5095652F2E
:1044F000752F20E030E0C50122D081E0C81AD10834
:10450000E108F108EFEFCE16DE06EE06FE0611F723
:10451000A0960FB6F894DEBF0FBECDBFDF91CF914E
:104520001F910F91FF90EF90DF90CF90BF90AF90D1
:104530009F908F907F906F905F904F90089521157E
:10454000310539F48091C00085FFFCCF4093C6004F
:1045500008952A30310509F41CC05BCFCF93DF9357
:10456000EC0120E030E04DE050E060E070E0E7DF9B
:1045700020E030E04AE050E060E070E0CE01DF9102
:10458000CF91DDCF9A01AB01662757FD6095762F5D
:10459000D6CFCF92DF92EF92FF92CF93DF93EC01D1
:1045A0006A017B0177FF0FC020E030E04DE250E070
:1045B00060E070E0C4DFF094E094D094C094C11C3B
:1045C000D11CE11CF11C2AE0B701A601CE01DF914C
:1045D000CF91FF90EF90DF90CF901BCF2115310549
:1045E00039F48091C00085FFFCCF4093C600089548
:1045F00010CF9A01462F50E060E070E0EFCFCF93EC
:10460000DF93EC019A01AB0160E070E0E7DFCE01DF
:10461000DF91CF91A3CF8F929F92AF92BF92CF9213
:10462000DF92EF92FF921F93CF93DF93EC016A0129
:104630007B01122F20E030E0A901C701B6010E94E2
:1046400030DB87FF0CC020E030E04DE250E060E05E
:1046500070E0CE0174DFF7FAF094F7F8F094B12C23
:1046600060E070E080E09FE3B11641F020E030E0D0
:1046700040E251E40E9437DBB394F6CF9B01AC01DA
:10468000C701B6010E9457DA6B017C010E94A4DBCE
:104690004B015C010E94D0DB9B01AC01C701B6015C
:1046A0000E9456DA6B017C012AE0B501A401CE011B
:1046B000B0DE112361F0EBEAF4E08191882339F058
:1046C0009091C00095FFFCCF8093C600F6CF1123D8
:1046D00019F120E030E040E251E4C701B6010E9448
:1046E00005DE6B017C010E949FDB4B01AA2497FC35
:1046F000A094BA2CB501A401CE014BDFC501B401D1
:104700000E94D2DB9B01AC01C701B6010E9456DAC0
:104710006B017C011150DBCFDF91CF911F91FF9096
:10472000EF90DF90CF90BF90AF909F908F900895C3
:1047300072CFFC0165917591859194910895809156
:104740000B0290910C02A0910D02B0910E02809389
:10475000FC069093FD06A093FE06B093FF068091A1
:10476000230290912402909353078093520784E68A
:1047700090E090932402809323020E9427D46093B8
:104780005B0570935C0580935D0590935E0581E009
:104790000C94F68680E00E94F6868091FC0690914B
:1047A000FD06A091FE06B091FF0680930B02909348
:1047B0000C02A0930D02B0930E02809152079091CB
:1047C000530790932402809323020E9427D460937E
:1047D0005B0570935C0580935D0590935E0508957D
:1047E0004F925F926F927F928F929F92AF92BF9201
:1047F000CF92DF92EF92FF920F931F9340900B02A4
:1048000050900C0260900D0270900E02812C912C41
:10481000EAEFAE2EE5E4BE2E80920B0290920C02DF
:10482000A0920D02B0920E0260934207709343076C
:10483000809344079093450720934607309347079A
:104840004093480750934907E0924A07F0924B077C
:1048500000934C0710934D07E2E2F7E0FF93EF93CC
:10486000F5E58F2E982CF5E0AF2EF3E4BF2EAEE4E5
:10487000CA2EA7E0DA2E0E9470590E94038E409241
:104880000B0250920C0260920D0270920E020F9079
:104890000F901F910F91FF90EF90DF90CF90BF90FE
:1048A000AF909F908F907F906F905F904F90089502
:1048B0002F923F924F925F926F927F928F929F9230
:1048C000AF92BF92CF92DF92EF92FF920F931F931E
:1048D000CF93DF9385E492E00E94AACEEDE2F2E06E
:1048E000608171818281938160930B0270930C02CD
:1048F00080930D0290930E0220E030E040E752E4F6
:104900000E9437DB4B015C01C6E4D7E02881398186
:104910004A815B81E2E4F7E0608171818281938169
:10492000B2E22B2EB7E03B2E3F922F921EE4C12E17
:1049300017E0D12EE12CF12C00E211EC0E9470590D
:104940000E94038E82E00E946B8E4B015C012881E5
:1049500039814A815B81E2E4F7E060817181828183
:104960009381850174010E94EC6388E09CE0E1DEA4
:104970009B01AC01C501B4010E9457DA2B013C0137
:1049800020E030E040E752E460910B0270910C02AD
:1049900080910D0290910E020E9437DB4B015C0169
:1049A000288139814A815B81E2E4F7E0608171818D
:1049B000828193813F922F92830172010E947059EC
:1049C0000E94038E20E030E040E85EE3EDE2F2E09A
:1049D00060817181828193810E9405DE4B015C01BF
:1049E00060930B0270930C0280930D0290930E0261
:1049F00088E09CE09EDE6B017C0120E030E040E737
:104A000052E4C501B4010E9437DB4B015C01A701F0
:104A10009601C701B6010E9457DA9B01AC01C301A0
:104A2000B2010E9456DA7B018C01288139814A81CA
:104A30005B81E2E4F7E060817181828193813F9242
:104A40002F92FEE4CF2EF7E0DF2E0E9470590E94D5
:104A5000038E82E00E946B8E7B018C0160934A077B
:104A600070934B0780934C0790934D0728813981B1
:104A70004A815B81E2E4F7E0608171818281938108
:104A80000E94EC630F900F900F900F900F900F907B
:104A9000DF91CF911F910F91FF90EF90DF90CF901A
:104AA000BF90AF909F908F907F906F905F904F904E
:104AB0003F902F9008952F923F924F925F926F9266
:104AC0007F928F929F92AF92BF92CF92DF92EF929E
:104AD000FF920F931F93CF93DF93CDB7DEB72A9743
:104AE0000FB6F894DEBF0FBECDBF9E838D83FC0151
:104AF000E350F44FB490880F991F880F991F9A873D
:104B000089878E5B984F9A838983DC011D921D9261
:104B10001D921C921397BAE42B2EB7E03B2EF101A5
:104B2000E080F18002811381A6E4B7E02D913D91F0
:104B30004D915C91E2E4F7E0608171818281938123
:104B4000EEE4CE2EE7E0DE2E0E94EC6389859A85A6
:104B5000845F934FEEDD6B017C016B2D772767FD42
:104B60007095872F972F0E94D2DB2B013C0129855E
:104B70003A85205F384F3C832B8320E030E040ECC7
:104B80005FE3C701B6010E9405DEA30192010E9406
:104B900005DEAB81BC816D937D938D939C931397C0
:104BA000E985FA85EB5DFD4FF887EF8360817181C0
:104BB0008281938160930B0270930C0280930D02AB
:104BC00090930E0220E030E040E752E40E9437DB91
:104BD0004B015C01A8E1B7E0ED90FD900D911C91B7
:104BE000E4E1F7E02081318142815381A0E1B7E027
:104BF0006D917D918D919C91A2E2B7E0BF93AF93AF
:104C0000FCE1CF2EF7E0DF2E0E9470590E94038E48
:104C1000A981BA811D921D921D921C921397F101D8
:104C2000E080F18002811381A6E4B7E02D913D91EF
:104C30004D915C91E2E4F7E0608171818281938122
:104C4000AEE4CA2EA7E0DA2E0E94EC6329853A85ED
:104C50002050344F1901C9016CDD9058A301920115
:104C60000E9405DEAB81BC816D937D938D939C93F7
:104C7000139720E030E040E752E460910B0270911E
:104C80000C0280910D0290910E020E9437DB4B01C5
:104C90005C01E8E1F7E0E080F18002811381A4E1AA
:104CA000B7E02D913D914D915C91E0E1F7E060819D
:104CB000718182819381A2E2B7E0BF93AF93BCE19F
:104CC000CB2EB7E0DB2E0E9470590E94038EC101EB
:104CD00030DD9B01AC010E9457DAA30192010E94D2
:104CE00005DEAB81BC816D937D938D939C9313976F
:104CF00020E030E040E05FE3EF81F8856081718182
:104D0000828193810E9405DE60930B0270930C02F6
:104D100080930D0290930E0220E030E040E752E4D1
:104D20000E9437DB4B015C01A8E1B7E0ED90FD90FC
:104D30000D911C91E4E1F7E02081318142815381A2
:104D4000A0E1B7E06D917D918D919C91A2E2B7E0D9
:104D5000BF93AF930E9470590E94038E89859A85F4
:104D6000885E934FE6DC09851A850A5C184FD801E6
:104D70002D913D914D915C910E9457DAE981FA8124
:104D8000608371838283938389859A85805D934F45
:104D9000D0DC29853A85265D384F7901D8012D91DF
:104DA0003D914D915C910E9457DAF70160837183C8
:104DB0008283938389859A858C5D934FBADC29859C
:104DC0003A852F5E3D4F7901D8012D913D914D914E
:104DD0005C910E9457DAF701608371838283938329
:104DE000E981FA8180819181A281B381EB81FC818B
:104DF00080839183A283B38310920B0210920C02E2
:104E000010920D0210920E020E94EF86ED81FE813B
:104E1000E95DF84F81E080830F900F900F900F9025
:104E20000F900F902A960FB6F894DEBF0FBECDBF3D
:104E3000DF91CF911F910F91FF90EF90DF90CF9076
:104E4000BF90AF909F908F907F906F905F904F90AA
:104E50003F902F900895FC012491222341F030913E
:104E6000C00035FFFCCF2093C6000196F4CF22E0AE
:104E700030E086EC94E05CCCFC012491222341F0EC
:104E80003091C00035FFFCCF2093C6000196F4CFCF
:104E90002AE030E086EC94E0A1CBCF93DF931F9221
:104EA0001F92CDB7DEB780914013909141139E01C0
:104EB0002F5F3F4F009719F42654334102C0281B3F
:104EC000390B3A83298389819A810F900F90DF9162
:104ED000CF91089520916505309166052430310504
:104EE0000CF06AC0409167055091680560E6649FC8
:104EF0009001659F300D1124BC01C90181599A4F61
:104F00000E94B5E3ECE3FCE08491882341F09091AA
:104F1000C00095FFFCCF8093C6003196F5CFE2EF3D
:104F2000FBE08491882341F09091C00095FFFCCF75
:104F30008093C6003196F5CF809167059091680502
:104F400020E6289FF001299FF00D1124E159FA4F26
:104F50008191882339F09091C00095FFFCCF809318
:104F6000C600F6CFE0EFFBE08491882341F09091FA
:104F7000C00095FFFCCF8093C6003196F5CF80919D
:104F8000C00085FFFCCF8AE08093C6008091670552
:104F900090916805019664E070E00E94EEDE9093C7
:104FA0006805809367058091650590916605019677
:104FB000909366058093650508952091650530916D
:104FC0006605243031050CF06AC0409167055091A8
:104FD000680560E6649F9001659F300D1124BC0157
:104FE000C90181599A4F0E9438E3ECE3FCE08491B7
:104FF000882341F09091C00095FFFCCF8093C600BC
:105000003196F5CFE5EEFBE08491882341F0909155
:10501000C00095FFFCCF8093C6003196F5CF8091FC
:1050200067059091680520E6289FF001299FF00D03
:105030001124E159FA4F8191882339F09091C000F1
:1050400095FFFCCF8093C600F6CFE3EEFBE08491A2
:10505000882341F09091C00095FFFCCF8093C6005B
:105060003196F5CF8091C00085FFFCCF8AE0809318
:10507000C6008091670590916805019664E070E034
:105080000E94EEDE90936805809367058091650528
:105090009091660501969093660580936505089545
:1050A00060E089E20E9400D6A09A0895269A2E9880
:1050B0000895F6DFFBDF40E950ED63E070E086EC39
:1050C00094E04CD9EDEDFBE08491882341F0909180
:1050D000C00095FFFCCF8093C6003196F5CF80913C
:1050E000C00085FFFCCF8AE08093C6008CE39CE083
:1050F000FC012491222341F03091C00035FFFCCF08
:105100002093C6003196F5CF24B720FF14C0E5EDFB
:10511000FBE03491332341F04091C00045FFFCCFC8
:105120003093C6003196F5CF3091C00035FFFCCFEB
:105130003AE03093C60021FF14C0E5ECFBE0349167
:10514000332341F04091C00045FFFCCF3093C600AF
:105150003196F5CF3091C00035FFFCCF3AE0309367
:10516000C60022FF14C0E4EBFBE03491332341F08E
:105170004091C00045FFFCCF3093C6003196F5CF7B
:105180003091C00035FFFCCF3AE03093C60023FFDA
:1051900014C0E4EAFBE03491332341F04091C000B5
:1051A00045FFFCCF3093C6003196F5CF3091C0005B
:1051B00035FFFCCF3AE03093C60025FF14C0E4E988
:1051C000FBE02491222341F03091C00035FFFCCF59
:1051D0002093C6003196F5CF2091C00025FFFCCF6B
:1051E0002AE02093C60014BEEDE8FBE024912223C0
:1051F00041F03091C00035FFFCCF2093C6003196BE
:10520000F5CFE7E8FBE02491222341F03091C00084
:1052100035FFFCCF2093C6003196F5CF2091C0001A
:1052200025FFFCCF2AE02093C600FC012491ECE38B
:10523000FCE0222349F03091C00035FFFCCF2093E1
:10524000C60031962491F5CFE7E7FBE024912223B5
:1052500041F03091C00035FFFCCF2093C60031965D
:10526000F5CFE2E6FBE02491222341F03091C0002B
:1052700035FFFCCF2093C6003196F5CFE6E5FBE085
:105280002491222341F03091C00035FFFCCF2093C0
:10529000C6003196F5CFE7E3FBE02491222341F0ED
:1052A0003091C00035FFFCCF2093C6003196F5CF7A
:1052B0002091C00025FFFCCF2AE02093C600ECE23D
:1052C000FBE02491222341F03091C00035FFFCCF58
:1052D0002093C6003196F5CFE0E2FBE02491222333
:1052E00041F03091C00035FFFCCF2093C6003196CD
:1052F000F5CF2091C00025FFFCCF2AE02093C60007
:10530000FC018491ECE3FCE0882349F09091C0001B
:1053100095FFFCCF8093C60031968491F5CFE1E1F3
:10532000FBE08491882341F09091C00095FFFCCF71
:105330008093C6003196F5CFB0DD4AE050E0BC0165
:1053400086EC94E01FD9EAEFFAE08491882341F0DB
:105350009091C00095FFFCCF8093C6003196F5CFA9
:105360004AE050E060ED74E086EC94E00BD9809167
:10537000C00085FFFCCF8AE08093C60010926B05C9
:1053800010926C0510926D0510926E050E9491208E
:105390000E9466900E94EE570E94808D0E9430AB62
:1053A000FFEF23ED80E3F15020408040E1F700C0A3
:1053B0000000089580915F059091600560E070E0C5
:1053C00001960C948FE080915F05909160054AE012
:1053D00050E060E070E001960C94F7E1682F7727C9
:1053E00067FD70952091690530916A0540E6429FFE
:1053F000C001439F900D112481599A4F0E94AAE346
:105400009093600580935F0521E0892B09F420E0EB
:10541000822F08950E9427D460935B0570935C05EA
:1054200080935D0590935E0508950E9427D4609354
:105430005B0570935C0580935D0590935E05E0913C
:105440006905F0916A05E559FA4F8081811114C010
:10545000E9E4F6E08491882341F09091C00095FF43
:10546000FCCF8093C6003196F5CF8091C00085FFB8
:10547000FCCF8AE08093C600089586EC94E00E94F9
:105480000022ECE4F6E08491882341F09091C00082
:1054900095FFFCCF8093C6003196F5CF4091F4067E
:1054A0005091F5066091F6067091F7064F5F5F4FD9
:1054B0006F4F7F4F2AE030E086EC94E040D8809137
:1054C000C00085FFFCCF8AE08093C600AECF2F924C
:1054D0003F924F925F926F927F928F929F92AF9284
:1054E000BF92CF92DF92EF92FF920F931F93CF93D1
:1054F000DF93CDB7DEB76E970FB6F894DEBF0FBE61
:10550000CDBF30E6932E04E010E04DEBE42E49E0F1
:10551000F42E5AE0852E63E3C62E6AE0D62E772459
:1055200073948091470590914805209149053091E9
:105530004A05821B930B8F779927892B09F425C283
:10554000809165059091660504970CF01EC286EC6B
:1055500094E00E94E42180936405209162053091DB
:1055600063058A3061F08D3051F08A3321F49091D7
:105570006105992321F02F3531050CF428C121153F
:10558000310509F442C18091670590916805989EA4
:105590005001999EB00C1124F501E20FF31FE1595F
:1055A000FA4F10822091610521110CC1FC01E559CF
:1055B000FA4F1082950121593A4F19016EE470E0BB
:1055C000C9010E94AAE30097E9F1909360058093D6
:1055D0005F05821993098A0D9B1D4AE050E060E047
:1055E00070E080599A4F0E94F7E16093F80670933B
:1055F000F9068093FA069093FB062091F406309109
:10560000F5064091F6065091F7062F5F3F4F4F4F3A
:105610005F4FA0906705B090680562177307840715
:10562000950709F4F5C09A9CC0019B9C900D11242C
:105630006CED7AE081599A4F0E946FE3892B09F053
:10564000E7C076C16AE270E0C1010E94AAE3892B3B
:1056500009F444C0E2E4FCE08491882341F0909195
:10566000C00095FFFCCF8093C6003196F5CFE6E3EE
:10567000FAE08491882341F09091C00095FFFCCF1F
:105680008093C6003196F5CF4091F4065091F5060F
:105690006091F6067091F7062AE030E086EC94E01F
:1056A0000E949F228091C00085FFFCCF8AE08093FA
:1056B000C6001092630510926205CDC28091F80673
:1056C0009091F906A091FA06B091FB068093F4063A
:1056D0009093F506A093F606B093F70680916705C0
:1056E00090916805989E5001999EB00C1124C501B7
:1056F00081599A4F1C0167E470E00E94AAE3009769
:1057000009F44BC09093600580935F05821993095B
:105710008A0D9B1D60E070E080599A4F0E948FE0D7
:105720000E949FDB6430710508F037C080914D0501
:1057300081111AC080915A0781112FC0F6018491FE
:10574000E3E3FAE0882349F09091C00095FFFCCF95
:105750008093C60031968491F5CF8091C00085FF7B
:10576000FCCF8092C60019C0F7018491EDEBF9E0FF
:10577000882349F09091C00095FFFCCF8093C6002C
:1057800031968491F5CF8091C00085FFFCCF809247
:10579000C60083EB99E00E94BFAA809167059091B3
:1057A00068050196B8010E94EEDE9093680580932B
:1057B0006705809165059091660501969093660551
:1057C000809365051092630510926205AACE8B3313
:1057D00011F470926105909161059111A2CE4091F2
:1057E000670550916805B9016F5F7F4F709363053E
:1057F00060936205949EF001959EF00D1124E20FD6
:10580000F31FE159FA4F80838CCE1092610523C2B9
:105810009A9C10019B9C300C1124C10181599A4F14
:105820005C016AE270E00E94AAE3009789F5E2E475
:10583000FCE08491882341F09091C00095FFFCCF5B
:105840008093C6003196F5CFE0E6FAE08491882394
:1058500041F09091C00095FFFCCF8093C600319637
:10586000F5CF4091F4065091F5066091F6067091DF
:10587000F7062AE030E086EC94E00E949F228091B7
:10588000C00085FFFCCF8AE08093C600F6DD11CF13
:1058900020E0612CF101E20FF11DE159FA4F308156
:1058A0003A3219F02F5F6326F5CF9093600580930D
:1058B0005F058A199B09820D931D60E070E0805995
:1058C0009A4F0E948FE00E949FDB262D30E0261722
:1058D000370709F4F3CEE2E4FCE08491882341F039
:1058E0009091C00095FFFCCF8093C6003196F5CF14
:1058F000EAE8FAE08491882341F09091C00095FF96
:10590000FCCF8093C6003196F5CF4091F4065091BC
:10591000F5066091F6067091F7062AE030E086EC15
:1059200094E00E949F228091C00085FFFCCFABCF06
:10593000E2E4FCE08491882341F09091C00095FF5F
:10594000FCCF8093C6003196F5CFE9EAFAE0849166
:10595000882341F09091C00095FFFCCF8093C60052
:105960003196F5CF4091F4065091F5066091F60618
:105970007091F7062AE030E086EC94E00E949F22C6
:105980008091C00085FFFCCF7ECF80915C0788238B
:1059900009F461C18091620590916305892B09F03A
:1059A0005AC18091650590916605892B11F410927A
:1059B0004B0598EE292E93E0392E412C512C2CE3E7
:1059C000C22ED12CE12CF12C8E010F5F1F4F80E6EF
:1059D000682E772473944091DD095091DE0960911F
:1059E000DF097091E0098091D5099091D609A091C5
:1059F000D709B091D809481759076A077B0708F0FB
:105A00002AC1809165059091660504970CF023C129
:105A100080914B0581111FC180913009909131090E
:105A2000A0913209B09133098093DD099093DE098A
:105A3000A093DF09B093E00988E299E00E94847B9B
:105A4000482F809364058A30B9F04D30A9F0433275
:105A500029F420916105211103C00EC04A33C9F316
:105A600020916205309163052F3531052CF48F3F6D
:105A7000FFEF9F0709F0D1C04091DD095091DE0989
:105A80006091DF097091E0098091D5099091D60964
:105A9000A091D709B091D809481759076A077B0721
:105AA00008F481C0E0EAF9E08491882341F0909104
:105AB000C00095FFFCCF8093C6003196F5CF809152
:105AC000C00085FFFCCFFAE0F093C6000E9427D407
:105AD00060934F0570935005809351059093520544
